{
  "_format": "hh-sol-artifact-1",
  "contractName": "SupplyChain",
  "sourceName": "contracts/SupplyChain.sol",
  "abi": [
    {
      "anonymous": false,
      "inputs": [
        {
          "indexed": true,
          "internalType": "address",
          "name": "previousOwner",
          "type": "address"
        },
        {
          "indexed": true,
          "internalType": "address",
          "name": "newOwner",
          "type": "address"
        }
      ],
      "name": "OwnershipTransferred",
      "type": "event"
    },
    {
      "inputs": [
        {
          "internalType": "uint256",
          "name": "_id",
          "type": "uint256"
        }
      ],
      "name": "approveItem",
      "outputs": [],
      "stateMutability": "nonpayable",
      "type": "function"
    },
    {
      "inputs": [
        {
          "internalType": "uint256",
          "name": "_id",
          "type": "uint256"
        }
      ],
      "name": "cancelItem",
      "outputs": [],
      "stateMutability": "nonpayable",
      "type": "function"
    },
    {
      "inputs": [
        {
          "internalType": "uint256",
          "name": "_id",
          "type": "uint256"
        }
      ],
      "name": "getItem",
      "outputs": [
        {
          "components": [
            {
              "internalType": "uint256",
              "name": "id",
              "type": "uint256"
            },
            {
              "internalType": "string",
              "name": "name",
              "type": "string"
            },
            {
              "internalType": "enum SupplyChain.Status",
              "name": "status",
              "type": "uint8"
            },
            {
              "internalType": "address",
              "name": "orderedBy",
              "type": "address"
            },
            {
              "internalType": "address",
              "name": "approvedBy",
              "type": "address"
            },
            {
              "internalType": "address",
              "name": "deliveredTo",
              "type": "address"
            }
          ],
          "internalType": "struct SupplyChain.Item",
          "name": "",
          "type": "tuple"
        }
      ],
      "stateMutability": "view",
      "type": "function"
    },
    {
      "inputs": [],
      "name": "getItemCount",
      "outputs": [
        {
          "internalType": "uint256",
          "name": "",
          "type": "uint256"
        }
      ],
      "stateMutability": "view",
      "type": "function"
    },
    {
      "inputs": [
        {
          "internalType": "uint256",
          "name": "_id",
          "type": "uint256"
        }
      ],
      "name": "getItemStatus",
      "outputs": [
        {
          "internalType": "enum SupplyChain.Status",
          "name": "",
          "type": "uint8"
        }
      ],
      "stateMutability": "view",
      "type": "function"
    },
    {
      "inputs": [
        {
          "internalType": "string",
          "name": "_name",
          "type": "string"
        }
      ],
      "name": "orderItem",
      "outputs": [],
      "stateMutability": "nonpayable",
      "type": "function"
    },
    {
      "inputs": [],
      "name": "owner",
      "outputs": [
        {
          "internalType": "address",
          "name": "",
          "type": "address"
        }
      ],
      "stateMutability": "view",
      "type": "function"
    },
    {
      "inputs": [],
      "name": "renounceOwnership",
      "outputs": [],
      "stateMutability": "nonpayable",
      "type": "function"
    },
    {
      "inputs": [
        {
          "internalType": "uint256",
          "name": "_id",
          "type": "uint256"
        }
      ],
      "name": "shipItem",
      "outputs": [],
      "stateMutability": "nonpayable",
      "type": "function"
    },
    {
      "inputs": [
        {
          "internalType": "address",
          "name": "newOwner",
          "type": "address"
        }
      ],
      "name": "transferOwnership",
      "outputs": [],
      "stateMutability": "nonpayable",
      "type": "function"
    }
  ],
  "bytecode": "0x608060405234801561001057600080fd5b5061002d61002261003260201b60201c565b61003a60201b60201c565b6100fe565b600033905090565b60008060009054906101000a900473ffffffffffffffffffffffffffffffffffffffff169050816000806101000a81548173ffffffffffffffffffffffffffffffffffffffff021916908373ffffffffffffffffffffffffffffffffffffffff1602179055508173ffffffffffffffffffffffffffffffffffffffff168173ffffffffffffffffffffffffffffffffffffffff167f8be0079c531659141344cd1fd0a4f28419497f9722a3daafe3b4186f6b6457e060405160405180910390a35050565b6118318061010d6000396000f3fe608060405234801561001057600080fd5b506004361061009e5760003560e01c80638da5cb5b116100665780638da5cb5b14610147578063d283c85014610165578063d2f2d61914610181578063f2fde38b1461019d578063f61c899a146101b95761009e565b80633129e773146100a35780633bae4de8146100d357806351563f8e14610103578063715018a61461011f5780637749cf2314610129575b600080fd5b6100bd60048036038101906100b89190610ccb565b6101d5565b6040516100ca9190610ed8565b60405180910390f35b6100ed60048036038101906100e89190610ccb565b6103db565b6040516100fa9190610f09565b60405180910390f35b61011d60048036038101906101189190610ccb565b610408565b005b610127610578565b005b61013161058c565b60405161013e9190610f33565b60405180910390f35b61014f610596565b60405161015c9190610f5d565b60405180910390f35b61017f600480360381019061017a9190610ccb565b6105bf565b005b61019b600480360381019061019691906110ad565b6106e7565b005b6101b760048036038101906101b29190611122565b6108cb565b005b6101d360048036038101906101ce9190610ccb565b61094e565b005b6101dd610bf7565b600160008381526020019081526020016000206040518060c0016040529081600082015481526020016001820180546102159061117e565b80601f01602080910402602001604051908101604052809291908181526020018280546102419061117e565b801561028e5780601f106102635761010080835404028352916020019161028e565b820191906000526020600020905b81548152906001019060200180831161027157829003601f168201915b505050505081526020016002820160009054906101000a900460ff1660038111156102bc576102bb610d97565b5b60038111156102ce576102cd610d97565b5b81526020016002820160019054906101000a900473ffffffffffffffffffffffffffffffffffffffff1673ffffffffffffffffffffffffffffffffffffffff1673ffffffffffffffffffffffffffffffffffffffff1681526020016003820160009054906101000a900473ffffffffffffffffffffffffffffffffffffffff1673ffffffffffffffffffffffffffffffffffffffff1673ffffffffffffffffffffffffffffffffffffffff1681526020016004820160009054906101000a900473ffffffffffffffffffffffffffffffffffffffff1673ffffffffffffffffffffffffffffffffffffffff1673ffffffffffffffffffffffffffffffffffffffff16815250509050919050565b60006001600083815260200190815260200160002060020160009054906101000a900460ff169050919050565b3373ffffffffffffffffffffffffffffffffffffffff166001600083815260200190815260200160002060020160019054906101000a900473ffffffffffffffffffffffffffffffffffffffff1673ffffffffffffffffffffffffffffffffffffffff16146104ac576040517f08c379a00000000000000000000000000000000000000000000000000000000081526004016104a390611232565b60405180910390fd5b600060038111156104c0576104bf610d97565b5b6001600083815260200190815260200160002060020160009054906101000a900460ff1660038111156104f6576104f5610d97565b5b14610536576040517f08c379a000000000000000000000000000000000000000000000000000000000815260040161052d906112c4565b60405180910390fd5b60036001600083815260200190815260200160002060020160006101000a81548160ff021916908360038111156105705761056f610d97565b5b021790555050565b610580610aad565b61058a6000610b2b565b565b6000600254905090565b60008060009054906101000a900473ffffffffffffffffffffffffffffffffffffffff16905090565b6105c7610aad565b600060038111156105db576105da610d97565b5b6001600083815260200190815260200160002060020160009054906101000a900460ff16600381111561061157610610610d97565b5b14610651576040517f08c379a000000000000000000000000000000000000000000000000000000000815260040161064890611356565b60405180910390fd5b600180600083815260200190815260200160002060020160006101000a81548160ff0219169083600381111561068a57610689610d97565b5b0217905550336001600083815260200190815260200160002060030160006101000a81548173ffffffffffffffffffffffffffffffffffffffff021916908373ffffffffffffffffffffffffffffffffffffffff16021790555050565b60006040518060c0016040528060025481526020018381526020016000600381111561071657610715610d97565b5b81526020013373ffffffffffffffffffffffffffffffffffffffff168152602001600073ffffffffffffffffffffffffffffffffffffffff168152602001600073ffffffffffffffffffffffffffffffffffffffff168152509050806001600060025481526020019081526020016000206000820151816000015560208201518160010190816107a69190611522565b5060408201518160020160006101000a81548160ff021916908360038111156107d2576107d1610d97565b5b021790555060608201518160020160016101000a81548173ffffffffffffffffffffffffffffffffffffffff021916908373ffffffffffffffffffffffffffffffffffffffff16021790555060808201518160030160006101000a81548173ffffffffffffffffffffffffffffffffffffffff021916908373ffffffffffffffffffffffffffffffffffffffff16021790555060a08201518160040160006101000a81548173ffffffffffffffffffffffffffffffffffffffff021916908373ffffffffffffffffffffffffffffffffffffffff160217905550905050600260008154809291906108c290611623565b91905055505050565b6108d3610aad565b600073ffffffffffffffffffffffffffffffffffffffff168173ffffffffffffffffffffffffffffffffffffffff1603610942576040517f08c379a0000000000000000000000000000000000000000000000000000000008152600401610939906116dd565b60405180910390fd5b61094b81610b2b565b50565b610956610aad565b6001600381111561096a57610969610d97565b5b6001600083815260200190815260200160002060020160009054906101000a900460ff1660038111156109a05761099f610d97565b5b146109e0576040517f08c379a00000000000000000000000000000000000000000000000000000000081526004016109d79061176f565b60405180910390fd5b60026001600083815260200190815260200160002060020160006101000a81548160ff02191690836003811115610a1a57610a19610d97565b5b02179055506001600082815260200190815260200160002060020160019054906101000a900473ffffffffffffffffffffffffffffffffffffffff166001600083815260200190815260200160002060040160006101000a81548173ffffffffffffffffffffffffffffffffffffffff021916908373ffffffffffffffffffffffffffffffffffffffff16021790555050565b610ab5610bef565b73ffffffffffffffffffffffffffffffffffffffff16610ad3610596565b73ffffffffffffffffffffffffffffffffffffffff1614610b29576040517f08c379a0000000000000000000000000000000000000000000000000000000008152600401610b20906117db565b60405180910390fd5b565b60008060009054906101000a900473ffffffffffffffffffffffffffffffffffffffff169050816000806101000a81548173ffffffffffffffffffffffffffffffffffffffff021916908373ffffffffffffffffffffffffffffffffffffffff1602179055508173ffffffffffffffffffffffffffffffffffffffff168173ffffffffffffffffffffffffffffffffffffffff167f8be0079c531659141344cd1fd0a4f28419497f9722a3daafe3b4186f6b6457e060405160405180910390a35050565b600033905090565b6040518060c00160405280600081526020016060815260200160006003811115610c2457610c23610d97565b5b8152602001600073ffffffffffffffffffffffffffffffffffffffff168152602001600073ffffffffffffffffffffffffffffffffffffffff168152602001600073ffffffffffffffffffffffffffffffffffffffff1681525090565b6000604051905090565b600080fd5b600080fd5b6000819050919050565b610ca881610c95565b8114610cb357600080fd5b50565b600081359050610cc581610c9f565b92915050565b600060208284031215610ce157610ce0610c8b565b5b6000610cef84828501610cb6565b91505092915050565b610d0181610c95565b82525050565b600081519050919050565b600082825260208201905092915050565b60005b83811015610d41578082015181840152602081019050610d26565b60008484015250505050565b6000601f19601f8301169050919050565b6000610d6982610d07565b610d738185610d12565b9350610d83818560208601610d23565b610d8c81610d4d565b840191505092915050565b7f4e487b7100000000000000000000000000000000000000000000000000000000600052602160045260246000fd5b60048110610dd757610dd6610d97565b5b50565b6000819050610de882610dc6565b919050565b6000610df882610dda565b9050919050565b610e0881610ded565b82525050565b600073ffffffffffffffffffffffffffffffffffffffff82169050919050565b6000610e3982610e0e565b9050919050565b610e4981610e2e565b82525050565b600060c083016000830151610e676000860182610cf8565b5060208301518482036020860152610e7f8282610d5e565b9150506040830151610e946040860182610dff565b506060830151610ea76060860182610e40565b506080830151610eba6080860182610e40565b5060a0830151610ecd60a0860182610e40565b508091505092915050565b60006020820190508181036000830152610ef28184610e4f565b905092915050565b610f0381610ded565b82525050565b6000602082019050610f1e6000830184610efa565b92915050565b610f2d81610c95565b82525050565b6000602082019050610f486000830184610f24565b92915050565b610f5781610e2e565b82525050565b6000602082019050610f726000830184610f4e565b92915050565b600080fd5b600080fd5b7f4e487b7100000000000000000000000000000000000000000000000000000000600052604160045260246000fd5b610fba82610d4d565b810181811067ffffffffffffffff82111715610fd957610fd8610f82565b5b80604052505050565b6000610fec610c81565b9050610ff88282610fb1565b919050565b600067ffffffffffffffff82111561101857611017610f82565b5b61102182610d4d565b9050602081019050919050565b82818337600083830152505050565b600061105061104b84610ffd565b610fe2565b90508281526020810184848401111561106c5761106b610f7d565b5b61107784828561102e565b509392505050565b600082601f83011261109457611093610f78565b5b81356110a484826020860161103d565b91505092915050565b6000602082840312156110c3576110c2610c8b565b5b600082013567ffffffffffffffff8111156110e1576110e0610c90565b5b6110ed8482850161107f565b91505092915050565b6110ff81610e2e565b811461110a57600080fd5b50565b60008135905061111c816110f6565b92915050565b60006020828403121561113857611137610c8b565b5b60006111468482850161110d565b91505092915050565b7f4e487b7100000000000000000000000000000000000000000000000000000000600052602260045260246000fd5b6000600282049050600182168061119657607f821691505b6020821081036111a9576111a861114f565b5b50919050565b600082825260208201905092915050565b7f4f6e6c792074686520706572736f6e2077686f206f726465726564207468652060008201527f6974656d2063616e2063616e63656c2069740000000000000000000000000000602082015250565b600061121c6032836111af565b9150611227826111c0565b604082019050919050565b6000602082019050818103600083015261124b8161120f565b9050919050565b7f4974656d2063616e206f6e6c792062652063616e63656c6c656420696620697460008201527f20697320696e20746865204f7264657265642073746174650000000000000000602082015250565b60006112ae6038836111af565b91506112b982611252565b604082019050919050565b600060208201905081810360008301526112dd816112a1565b9050919050565b7f4974656d206d75737420626520696e204f72646572656420737461746520746f60008201527f20626520617070726f7665640000000000000000000000000000000000000000602082015250565b6000611340602c836111af565b915061134b826112e4565b604082019050919050565b6000602082019050818103600083015261136f81611333565b9050919050565b60008190508160005260206000209050919050565b60006020601f8301049050919050565b600082821b905092915050565b6000600883026113d87fffffffffffffffffffffffffffffffffffffffffffffffffffffffffffffffff8261139b565b6113e2868361139b565b95508019841693508086168417925050509392505050565b6000819050919050565b600061141f61141a61141584610c95565b6113fa565b610c95565b9050919050565b6000819050919050565b61143983611404565b61144d61144582611426565b8484546113a8565b825550505050565b600090565b611462611455565b61146d818484611430565b505050565b5b818110156114915761148660008261145a565b600181019050611473565b5050565b601f8211156114d6576114a781611376565b6114b08461138b565b810160208510156114bf578190505b6114d36114cb8561138b565b830182611472565b50505b505050565b600082821c905092915050565b60006114f9600019846008026114db565b1980831691505092915050565b600061151283836114e8565b9150826002028217905092915050565b61152b82610d07565b67ffffffffffffffff81111561154457611543610f82565b5b61154e825461117e565b611559828285611495565b600060209050601f83116001811461158c576000841561157a578287015190505b6115848582611506565b8655506115ec565b601f19841661159a86611376565b60005b828110156115c25784890151825560018201915060208501945060208101905061159d565b868310156115df57848901516115db601f8916826114e8565b8355505b6001600288020188555050505b505050505050565b7f4e487b7100000000000000000000000000000000000000000000000000000000600052601160045260246000fd5b600061162e82610c95565b91507fffffffffffffffffffffffffffffffffffffffffffffffffffffffffffffffff82036116605761165f6115f4565b5b600182019050919050565b7f4f776e61626c653a206e6577206f776e657220697320746865207a65726f206160008201527f6464726573730000000000000000000000000000000000000000000000000000602082015250565b60006116c76026836111af565b91506116d28261166b565b604082019050919050565b600060208201905081810360008301526116f6816116ba565b9050919050565b7f4974656d206d75737420626520696e205368697070656420737461746520746f60008201527f2062652073686970706564000000000000000000000000000000000000000000602082015250565b6000611759602b836111af565b9150611764826116fd565b604082019050919050565b600060208201905081810360008301526117888161174c565b9050919050565b7f4f776e61626c653a2063616c6c6572206973206e6f7420746865206f776e6572600082015250565b60006117c56020836111af565b91506117d08261178f565b602082019050919050565b600060208201905081810360008301526117f4816117b8565b905091905056fea2646970667358221220261607e28df879a862c4149e76abdd1d4de75541a31a21cc0b52fa5d2efda56664736f6c63430008120033",
  "linkReferences": {},
  "deployedLinkReferences": {}
}